{
    "_format": "hh-sol-artifact-1",
    "contractName": "RoboPunksNFT",
    "sourceName": "contracts/RoboPunksNFT.sol",
    "abi": [
        {
            "inputs": [],
            "stateMutability": "payable",
            "type": "constructor"
        },
        {
            "anonymous": false,
            "inputs": [
                {
                    "indexed": true,
                    "internalType": "address",
                    "name": "owner",
                    "type": "address"
                },
                {
                    "indexed": true,
                    "internalType": "address",
                    "name": "approved",
                    "type": "address"
                },
                {
                    "indexed": true,
                    "internalType": "uint256",
                    "name": "tokenId",
                    "type": "uint256"
                }
            ],
            "name": "Approval",
            "type": "event"
        },
        {
            "anonymous": false,
            "inputs": [
                {
                    "indexed": true,
                    "internalType": "address",
                    "name": "owner",
                    "type": "address"
                },
                {
                    "indexed": true,
                    "internalType": "address",
                    "name": "operator",
                    "type": "address"
                },
                {
                    "indexed": false,
                    "internalType": "bool",
                    "name": "approved",
                    "type": "bool"
                }
            ],
            "name": "ApprovalForAll",
            "type": "event"
        },
        {
            "anonymous": false,
            "inputs": [
                {
                    "indexed": true,
                    "internalType": "address",
                    "name": "previousOwner",
                    "type": "address"
                },
                {
                    "indexed": true,
                    "internalType": "address",
                    "name": "newOwner",
                    "type": "address"
                }
            ],
            "name": "OwnershipTransferred",
            "type": "event"
        },
        {
            "anonymous": false,
            "inputs": [
                {
                    "indexed": true,
                    "internalType": "address",
                    "name": "from",
                    "type": "address"
                },
                {
                    "indexed": true,
                    "internalType": "address",
                    "name": "to",
                    "type": "address"
                },
                {
                    "indexed": true,
                    "internalType": "uint256",
                    "name": "tokenId",
                    "type": "uint256"
                }
            ],
            "name": "Transfer",
            "type": "event"
        },
        {
            "inputs": [
                {
                    "internalType": "address",
                    "name": "to",
                    "type": "address"
                },
                {
                    "internalType": "uint256",
                    "name": "tokenId",
                    "type": "uint256"
                }
            ],
            "name": "approve",
            "outputs": [],
            "stateMutability": "nonpayable",
            "type": "function"
        },
        {
            "inputs": [
                {
                    "internalType": "address",
                    "name": "owner",
                    "type": "address"
                }
            ],
            "name": "balanceOf",
            "outputs": [
                {
                    "internalType": "uint256",
                    "name": "",
                    "type": "uint256"
                }
            ],
            "stateMutability": "view",
            "type": "function"
        },
        {
            "inputs": [
                {
                    "internalType": "uint256",
                    "name": "tokenId",
                    "type": "uint256"
                }
            ],
            "name": "getApproved",
            "outputs": [
                {
                    "internalType": "address",
                    "name": "",
                    "type": "address"
                }
            ],
            "stateMutability": "view",
            "type": "function"
        },
        {
            "inputs": [
                {
                    "internalType": "address",
                    "name": "owner",
                    "type": "address"
                },
                {
                    "internalType": "address",
                    "name": "operator",
                    "type": "address"
                }
            ],
            "name": "isApprovedForAll",
            "outputs": [
                {
                    "internalType": "bool",
                    "name": "",
                    "type": "bool"
                }
            ],
            "stateMutability": "view",
            "type": "function"
        },
        {
            "inputs": [],
            "name": "isPublicMintEnabled",
            "outputs": [
                {
                    "internalType": "bool",
                    "name": "",
                    "type": "bool"
                }
            ],
            "stateMutability": "view",
            "type": "function"
        },
        {
            "inputs": [],
            "name": "maxPerWallet",
            "outputs": [
                {
                    "internalType": "uint256",
                    "name": "",
                    "type": "uint256"
                }
            ],
            "stateMutability": "view",
            "type": "function"
        },
        {
            "inputs": [],
            "name": "maxSupply",
            "outputs": [
                {
                    "internalType": "uint256",
                    "name": "",
                    "type": "uint256"
                }
            ],
            "stateMutability": "view",
            "type": "function"
        },
        {
            "inputs": [
                {
                    "internalType": "uint256",
                    "name": "quantity_",
                    "type": "uint256"
                }
            ],
            "name": "mint",
            "outputs": [],
            "stateMutability": "payable",
            "type": "function"
        },
        {
            "inputs": [],
            "name": "mintPrice",
            "outputs": [
                {
                    "internalType": "uint256",
                    "name": "",
                    "type": "uint256"
                }
            ],
            "stateMutability": "view",
            "type": "function"
        },
        {
            "inputs": [],
            "name": "name",
            "outputs": [
                {
                    "internalType": "string",
                    "name": "",
                    "type": "string"
                }
            ],
            "stateMutability": "view",
            "type": "function"
        },
        {
            "inputs": [],
            "name": "owner",
            "outputs": [
                {
                    "internalType": "address",
                    "name": "",
                    "type": "address"
                }
            ],
            "stateMutability": "view",
            "type": "function"
        },
        {
            "inputs": [
                {
                    "internalType": "uint256",
                    "name": "tokenId",
                    "type": "uint256"
                }
            ],
            "name": "ownerOf",
            "outputs": [
                {
                    "internalType": "address",
                    "name": "",
                    "type": "address"
                }
            ],
            "stateMutability": "view",
            "type": "function"
        },
        {
            "inputs": [],
            "name": "renounceOwnership",
            "outputs": [],
            "stateMutability": "nonpayable",
            "type": "function"
        },
        {
            "inputs": [
                {
                    "internalType": "address",
                    "name": "from",
                    "type": "address"
                },
                {
                    "internalType": "address",
                    "name": "to",
                    "type": "address"
                },
                {
                    "internalType": "uint256",
                    "name": "tokenId",
                    "type": "uint256"
                }
            ],
            "name": "safeTransferFrom",
            "outputs": [],
            "stateMutability": "nonpayable",
            "type": "function"
        },
        {
            "inputs": [
                {
                    "internalType": "address",
                    "name": "from",
                    "type": "address"
                },
                {
                    "internalType": "address",
                    "name": "to",
                    "type": "address"
                },
                {
                    "internalType": "uint256",
                    "name": "tokenId",
                    "type": "uint256"
                },
                {
                    "internalType": "bytes",
                    "name": "_data",
                    "type": "bytes"
                }
            ],
            "name": "safeTransferFrom",
            "outputs": [],
            "stateMutability": "nonpayable",
            "type": "function"
        },
        {
            "inputs": [
                {
                    "internalType": "address",
                    "name": "operator",
                    "type": "address"
                },
                {
                    "internalType": "bool",
                    "name": "approved",
                    "type": "bool"
                }
            ],
            "name": "setApprovalForAll",
            "outputs": [],
            "stateMutability": "nonpayable",
            "type": "function"
        },
        {
            "inputs": [
                {
                    "internalType": "string",
                    "name": "baseTokenUri_",
                    "type": "string"
                }
            ],
            "name": "setBaseTokenUri",
            "outputs": [],
            "stateMutability": "nonpayable",
            "type": "function"
        },
        {
            "inputs": [
                {
                    "internalType": "bool",
                    "name": "isPublicMintEnabled_",
                    "type": "bool"
                }
            ],
            "name": "setIsPublicMintEnabled",
            "outputs": [],
            "stateMutability": "nonpayable",
            "type": "function"
        },
        {
            "inputs": [
                {
                    "internalType": "bytes4",
                    "name": "interfaceId",
                    "type": "bytes4"
                }
            ],
            "name": "supportsInterface",
            "outputs": [
                {
                    "internalType": "bool",
                    "name": "",
                    "type": "bool"
                }
            ],
            "stateMutability": "view",
            "type": "function"
        },
        {
            "inputs": [],
            "name": "symbol",
            "outputs": [
                {
                    "internalType": "string",
                    "name": "",
                    "type": "string"
                }
            ],
            "stateMutability": "view",
            "type": "function"
        },
        {
            "inputs": [
                {
                    "internalType": "uint256",
                    "name": "tokenId_",
                    "type": "uint256"
                }
            ],
            "name": "tokenURI",
            "outputs": [
                {
                    "internalType": "string",
                    "name": "",
                    "type": "string"
                }
            ],
            "stateMutability": "view",
            "type": "function"
        },
        {
            "inputs": [],
            "name": "totalSupply",
            "outputs": [
                {
                    "internalType": "uint256",
                    "name": "",
                    "type": "uint256"
                }
            ],
            "stateMutability": "view",
            "type": "function"
        },
        {
            "inputs": [
                {
                    "internalType": "address",
                    "name": "from",
                    "type": "address"
                },
                {
                    "internalType": "address",
                    "name": "to",
                    "type": "address"
                },
                {
                    "internalType": "uint256",
                    "name": "tokenId",
                    "type": "uint256"
                }
            ],
            "name": "transferFrom",
            "outputs": [],
            "stateMutability": "nonpayable",
            "type": "function"
        },
        {
            "inputs": [
                {
                    "internalType": "address",
                    "name": "newOwner",
                    "type": "address"
                }
            ],
            "name": "transferOwnership",
            "outputs": [],
            "stateMutability": "nonpayable",
            "type": "function"
        },
        {
            "inputs": [
                {
                    "internalType": "address",
                    "name": "",
                    "type": "address"
                }
            ],
            "name": "walletMints",
            "outputs": [
                {
                    "internalType": "uint256",
                    "name": "",
                    "type": "uint256"
                }
            ],
            "stateMutability": "view",
            "type": "function"
        },
        {
            "inputs": [],
            "name": "withdraw",
            "outputs": [],
            "stateMutability": "nonpayable",
            "type": "function"
        },
        {
            "inputs": [],
            "name": "withdrawWallet",
            "outputs": [
                {
                    "internalType": "address payable",
                    "name": "",
                    "type": "address"
                }
            ],
            "stateMutability": "view",
            "type": "function"
        }
    ],
    "bytecode": "0x60806040526040518060400160405280600981526020017f526f626f50756e6b7300000000000000000000000000000000000000000000008152506040518060400160405280600281526020017f5250000000000000000000000000000000000000000000000000000000000000815250816000908051906020019062000088929190620001bf565b508060019080519060200190620000a1929190620001bf565b505050620000c4620000b8620000f160201b60201c565b620000f960201b60201c565b66470de4df82000060078190555060006008819055506103e86009819055506003600a81905550620002d4565b600033905090565b6000600660009054906101000a900473ffffffffffffffffffffffffffffffffffffffff16905081600660006101000a81548173ffffffffffffffffffffffffffffffffffffffff021916908373ffffffffffffffffffffffffffffffffffffffff1602179055508173ffffffffffffffffffffffffffffffffffffffff168173ffffffffffffffffffffffffffffffffffffffff167f8be0079c531659141344cd1fd0a4f28419497f9722a3daafe3b4186f6b6457e060405160405180910390a35050565b828054620001cd906200026f565b90600052602060002090601f016020900481019282620001f157600085556200023d565b82601f106200020c57805160ff19168380011785556200023d565b828001600101855582156200023d579182015b828111156200023c5782518255916020019190600101906200021f565b5b5090506200024c919062000250565b5090565b5b808211156200026b57600081600090555060010162000251565b5090565b600060028204905060018216806200028857607f821691505b602082108114156200029f576200029e620002a5565b5b50919050565b7f4e487b7100000000000000000000000000000000000000000000000000000000600052602260045260246000fd5b61384f80620002e46000396000f3fe60806040526004361061019c5760003560e01c806370a08231116100ec578063a22cb4651161008a578063d5abeb0111610064578063d5abeb0114610593578063e985e9c5146105be578063f0293fd3146105fb578063f2fde38b146106385761019c565b8063a22cb46514610504578063b88d4fde1461052d578063c87b56dd146105565761019c565b80638da5cb5b116100c65780638da5cb5b1461046957806395652cfa1461049457806395d89b41146104bd578063a0712d68146104e85761019c565b806370a08231146103ea578063715018a61461042757806385d178f41461043e5761019c565b80632373ac221161015957806342842e0e1161013357806342842e0e1461032e578063453c2310146103575780636352211e146103825780636817c76c146103bf5761019c565b80632373ac22146102c557806323b872dd146102ee5780633ccfd60b146103175761019c565b80630116bc2d146101a157806301ffc9a7146101cc57806306fdde0314610209578063081812fc14610234578063095ea7b31461027157806318160ddd1461029a575b600080fd5b3480156101ad57600080fd5b506101b6610661565b6040516101c39190612b11565b60405180910390f35b3480156101d857600080fd5b506101f360048036038101906101ee91906124e5565b610674565b6040516102009190612b11565b60405180910390f35b34801561021557600080fd5b5061021e610756565b60405161022b9190612b2c565b60405180910390f35b34801561024057600080fd5b5061025b6004803603810190610256919061257c565b6107e8565b6040516102689190612a8f565b60405180910390f35b34801561027d57600080fd5b5061029860048036038101906102939190612480565b61086d565b005b3480156102a657600080fd5b506102af610985565b6040516102bc9190612e0e565b60405180910390f35b3480156102d157600080fd5b506102ec60048036038101906102e791906124bc565b61098b565b005b3480156102fa57600080fd5b506103156004803603810190610310919061237a565b610a24565b005b34801561032357600080fd5b5061032c610a84565b005b34801561033a57600080fd5b506103556004803603810190610350919061237a565b610bd1565b005b34801561036357600080fd5b5061036c610bf1565b6040516103799190612e0e565b60405180910390f35b34801561038e57600080fd5b506103a960048036038101906103a4919061257c565b610bf7565b6040516103b69190612a8f565b60405180910390f35b3480156103cb57600080fd5b506103d4610ca9565b6040516103e19190612e0e565b60405180910390f35b3480156103f657600080fd5b50610411600480360381019061040c9190612315565b610caf565b60405161041e9190612e0e565b60405180910390f35b34801561043357600080fd5b5061043c610d67565b005b34801561044a57600080fd5b50610453610def565b6040516104609190612aaa565b60405180910390f35b34801561047557600080fd5b5061047e610e15565b60405161048b9190612a8f565b60405180910390f35b3480156104a057600080fd5b506104bb60048036038101906104b69190612537565b610e3f565b005b3480156104c957600080fd5b506104d2610ed1565b6040516104df9190612b2c565b60405180910390f35b61050260048036038101906104fd919061257c565b610f63565b005b34801561051057600080fd5b5061052b60048036038101906105269190612444565b61118a565b005b34801561053957600080fd5b50610554600480360381019061054f91906123c9565b6111a0565b005b34801561056257600080fd5b5061057d6004803603810190610578919061257c565b611202565b60405161058a9190612b2c565b60405180910390f35b34801561059f57600080fd5b506105a861127e565b6040516105b59190612e0e565b60405180910390f35b3480156105ca57600080fd5b506105e560048036038101906105e0919061233e565b611284565b6040516105f29190612b11565b60405180910390f35b34801561060757600080fd5b50610622600480360381019061061d9190612315565b611318565b60405161062f9190612e0e565b60405180910390f35b34801561064457600080fd5b5061065f600480360381019061065a9190612315565b611330565b005b600b60009054906101000a900460ff1681565b60007f80ac58cd000000000000000000000000000000000000000000000000000000007bffffffffffffffffffffffffffffffffffffffffffffffffffffffff1916827bffffffffffffffffffffffffffffffffffffffffffffffffffffffff1916148061073f57507f5b5e139f000000000000000000000000000000000000000000000000000000007bffffffffffffffffffffffffffffffffffffffffffffffffffffffff1916827bffffffffffffffffffffffffffffffffffffffffffffffffffffffff1916145b8061074f575061074e82611428565b5b9050919050565b606060008054610765906130bf565b80601f0160208091040260200160405190810160405280929190818152602001828054610791906130bf565b80156107de5780601f106107b3576101008083540402835291602001916107de565b820191906000526020600020905b8154815290600101906020018083116107c157829003601f168201915b5050505050905090565b60006107f382611492565b610832576040517f08c379a000000000000000000000000000000000000000000000000000000000815260040161082990612d6e565b60405180910390fd5b6004600083815260200190815260200160002060009054906101000a900473ffffffffffffffffffffffffffffffffffffffff169050919050565b600061087882610bf7565b90508073ffffffffffffffffffffffffffffffffffffffff168373ffffffffffffffffffffffffffffffffffffffff1614156108e9576040517f08c379a00000000000000000000000000000000000000000000000000000000081526004016108e090612dae565b60405180910390fd5b8073ffffffffffffffffffffffffffffffffffffffff166109086114fe565b73ffffffffffffffffffffffffffffffffffffffff1614806109375750610936816109316114fe565b611284565b5b610976576040517f08c379a000000000000000000000000000000000000000000000000000000000815260040161096d90612cae565b60405180910390fd5b6109808383611506565b505050565b60085481565b6109936114fe565b73ffffffffffffffffffffffffffffffffffffffff166109b1610e15565b73ffffffffffffffffffffffffffffffffffffffff1614610a07576040517f08c379a00000000000000000000000000000000000000000000000000000000081526004016109fe90612d8e565b60405180910390fd5b80600b60006101000a81548160ff02191690831515021790555050565b610a35610a2f6114fe565b826115bf565b610a74576040517f08c379a0000000000000000000000000000000000000000000000000000000008152600401610a6b90612dce565b60405180910390fd5b610a7f83838361169d565b505050565b610a8c6114fe565b73ffffffffffffffffffffffffffffffffffffffff16610aaa610e15565b73ffffffffffffffffffffffffffffffffffffffff1614610b00576040517f08c379a0000000000000000000000000000000000000000000000000000000008152600401610af790612d8e565b60405180910390fd5b6000600d60009054906101000a900473ffffffffffffffffffffffffffffffffffffffff1673ffffffffffffffffffffffffffffffffffffffff1647604051610b4890612a7a565b60006040518083038185875af1925050503d8060008114610b85576040519150601f19603f3d011682016040523d82523d6000602084013e610b8a565b606091505b5050905080610bce576040517f08c379a0000000000000000000000000000000000000000000000000000000008152600401610bc590612d2e565b60405180910390fd5b50565b610bec838383604051806020016040528060008152506111a0565b505050565b600a5481565b6000806002600084815260200190815260200160002060009054906101000a900473ffffffffffffffffffffffffffffffffffffffff169050600073ffffffffffffffffffffffffffffffffffffffff168173ffffffffffffffffffffffffffffffffffffffff161415610ca0576040517f08c379a0000000000000000000000000000000000000000000000000000000008152600401610c9790612d0e565b60405180910390fd5b80915050919050565b60075481565b60008073ffffffffffffffffffffffffffffffffffffffff168273ffffffffffffffffffffffffffffffffffffffff161415610d20576040517f08c379a0000000000000000000000000000000000000000000000000000000008152600401610d1790612cee565b60405180910390fd5b600360008373ffffffffffffffffffffffffffffffffffffffff1673ffffffffffffffffffffffffffffffffffffffff168152602001908152602001600020549050919050565b610d6f6114fe565b73ffffffffffffffffffffffffffffffffffffffff16610d8d610e15565b73ffffffffffffffffffffffffffffffffffffffff1614610de3576040517f08c379a0000000000000000000000000000000000000000000000000000000008152600401610dda90612d8e565b60405180910390fd5b610ded6000611904565b565b600d60009054906101000a900473ffffffffffffffffffffffffffffffffffffffff1681565b6000600660009054906101000a900473ffffffffffffffffffffffffffffffffffffffff16905090565b610e476114fe565b73ffffffffffffffffffffffffffffffffffffffff16610e65610e15565b73ffffffffffffffffffffffffffffffffffffffff1614610ebb576040517f08c379a0000000000000000000000000000000000000000000000000000000008152600401610eb290612d8e565b60405180910390fd5b8181600c9190610ecc929190612157565b505050565b606060018054610ee0906130bf565b80601f0160208091040260200160405190810160405280929190818152602001828054610f0c906130bf565b8015610f595780601f10610f2e57610100808354040283529160200191610f59565b820191906000526020600020905b815481529060010190602001808311610f3c57829003601f168201915b5050505050905090565b600b60009054906101000a900460ff16610fb2576040517f08c379a0000000000000000000000000000000000000000000000000000000008152600401610fa990612b4e565b60405180910390fd5b60075481610fc09190612f69565b3414611001576040517f08c379a0000000000000000000000000000000000000000000000000000000008152600401610ff890612b6e565b60405180910390fd5b600954816008546110129190612ee2565b1115611053576040517f08c379a000000000000000000000000000000000000000000000000000000000815260040161104a90612c8e565b60405180910390fd5b600a5481600e60003373ffffffffffffffffffffffffffffffffffffffff1673ffffffffffffffffffffffffffffffffffffffff168152602001908152602001600020546110a19190612ee2565b11156110e2576040517f08c379a00000000000000000000000000000000000000000000000000000000081526004016110d990612cce565b60405180910390fd5b34600754826110f19190612f69565b1115611132576040517f08c379a000000000000000000000000000000000000000000000000000000000815260040161112990612c0e565b60405180910390fd5b60005b81811015611186576000600160085461114e9190612ee2565b90506008600081548092919061116390613122565b919050555061117233826119ca565b50808061117e90613122565b915050611135565b5050565b61119c6111956114fe565b83836119e8565b5050565b6111b16111ab6114fe565b836115bf565b6111f0576040517f08c379a00000000000000000000000000000000000000000000000000000000081526004016111e790612dce565b60405180910390fd5b6111fc84848484611b55565b50505050565b606061120d82611492565b61124c576040517f08c379a000000000000000000000000000000000000000000000000000000000815260040161124390612dee565b60405180910390fd5b600c61125783611bb1565b604051602001611268929190612a4b565b6040516020818303038152906040529050919050565b60095481565b6000600560008473ffffffffffffffffffffffffffffffffffffffff1673ffffffffffffffffffffffffffffffffffffffff16815260200190815260200160002060008373ffffffffffffffffffffffffffffffffffffffff1673ffffffffffffffffffffffffffffffffffffffff16815260200190815260200160002060009054906101000a900460ff16905092915050565b600e6020528060005260406000206000915090505481565b6113386114fe565b73ffffffffffffffffffffffffffffffffffffffff16611356610e15565b73ffffffffffffffffffffffffffffffffffffffff16146113ac576040517f08c379a00000000000000000000000000000000000000000000000000000000081526004016113a390612d8e565b60405180910390fd5b600073ffffffffffffffffffffffffffffffffffffffff168173ffffffffffffffffffffffffffffffffffffffff16141561141c576040517f08c379a000000000000000000000000000000000000000000000000000000000815260040161141390612bae565b60405180910390fd5b61142581611904565b50565b60007f01ffc9a7000000000000000000000000000000000000000000000000000000007bffffffffffffffffffffffffffffffffffffffffffffffffffffffff1916827bffffffffffffffffffffffffffffffffffffffffffffffffffffffff1916149050919050565b60008073ffffffffffffffffffffffffffffffffffffffff166002600084815260200190815260200160002060009054906101000a900473ffffffffffffffffffffffffffffffffffffffff1673ffffffffffffffffffffffffffffffffffffffff1614159050919050565b600033905090565b816004600083815260200190815260200160002060006101000a81548173ffffffffffffffffffffffffffffffffffffffff021916908373ffffffffffffffffffffffffffffffffffffffff160217905550808273ffffffffffffffffffffffffffffffffffffffff1661157983610bf7565b73ffffffffffffffffffffffffffffffffffffffff167f8c5be1e5ebec7d5bd14f71427d1e84f3dd0314c0f7b2291e5b200ac8c7c3b92560405160405180910390a45050565b60006115ca82611492565b611609576040517f08c379a000000000000000000000000000000000000000000000000000000000815260040161160090612c6e565b60405180910390fd5b600061161483610bf7565b90508073ffffffffffffffffffffffffffffffffffffffff168473ffffffffffffffffffffffffffffffffffffffff16148061168357508373ffffffffffffffffffffffffffffffffffffffff1661166b846107e8565b73ffffffffffffffffffffffffffffffffffffffff16145b8061169457506116938185611284565b5b91505092915050565b8273ffffffffffffffffffffffffffffffffffffffff166116bd82610bf7565b73ffffffffffffffffffffffffffffffffffffffff1614611713576040517f08c379a000000000000000000000000000000000000000000000000000000000815260040161170a90612bce565b60405180910390fd5b600073ffffffffffffffffffffffffffffffffffffffff168273ffffffffffffffffffffffffffffffffffffffff161415611783576040517f08c379a000000000000000000000000000000000000000000000000000000000815260040161177a90612c2e565b60405180910390fd5b61178e838383611d5e565b611799600082611506565b6001600360008573ffffffffffffffffffffffffffffffffffffffff1673ffffffffffffffffffffffffffffffffffffffff16815260200190815260200160002060008282546117e99190612fc3565b925050819055506001600360008473ffffffffffffffffffffffffffffffffffffffff1673ffffffffffffffffffffffffffffffffffffffff16815260200190815260200160002060008282546118409190612ee2565b92505081905550816002600083815260200190815260200160002060006101000a81548173ffffffffffffffffffffffffffffffffffffffff021916908373ffffffffffffffffffffffffffffffffffffffff160217905550808273ffffffffffffffffffffffffffffffffffffffff168473ffffffffffffffffffffffffffffffffffffffff167fddf252ad1be2c89b69c2b068fc378daa952ba7f163c4a11628f55a4df523b3ef60405160405180910390a46118ff838383611d63565b505050565b6000600660009054906101000a900473ffffffffffffffffffffffffffffffffffffffff16905081600660006101000a81548173ffffffffffffffffffffffffffffffffffffffff021916908373ffffffffffffffffffffffffffffffffffffffff1602179055508173ffffffffffffffffffffffffffffffffffffffff168173ffffffffffffffffffffffffffffffffffffffff167f8be0079c531659141344cd1fd0a4f28419497f9722a3daafe3b4186f6b6457e060405160405180910390a35050565b6119e4828260405180602001604052806000815250611d68565b5050565b8173ffffffffffffffffffffffffffffffffffffffff168373ffffffffffffffffffffffffffffffffffffffff161415611a57576040517f08c379a0000000000000000000000000000000000000000000000000000000008152600401611a4e90612c4e565b60405180910390fd5b80600560008573ffffffffffffffffffffffffffffffffffffffff1673ffffffffffffffffffffffffffffffffffffffff16815260200190815260200160002060008473ffffffffffffffffffffffffffffffffffffffff1673ffffffffffffffffffffffffffffffffffffffff16815260200190815260200160002060006101000a81548160ff0219169083151502179055508173ffffffffffffffffffffffffffffffffffffffff168373ffffffffffffffffffffffffffffffffffffffff167f17307eab39ab6107e8899845ad3d59bd9653f200f220920489ca2b5937696c3183604051611b489190612b11565b60405180910390a3505050565b611b6084848461169d565b611b6c84848484611dc3565b611bab576040517f08c379a0000000000000000000000000000000000000000000000000000000008152600401611ba290612b8e565b60405180910390fd5b50505050565b60606000821415611bf9576040518060400160405280600181526020017f30000000000000000000000000000000000000000000000000000000000000008152509050611d59565b600082905060005b60008214611c2b578080611c1490613122565b915050600a82611c249190612f38565b9150611c01565b60008167ffffffffffffffff811115611c6d577f4e487b7100000000000000000000000000000000000000000000000000000000600052604160045260246000fd5b6040519080825280601f01601f191660200182016040528015611c9f5781602001600182028036833780820191505090505b5090505b60008514611d5257600182611cb89190612fc3565b9150600a85611cc7919061316b565b6030611cd39190612ee2565b60f81b818381518110611d0f577f4e487b7100000000000000000000000000000000000000000000000000000000600052603260045260246000fd5b60200101907effffffffffffffffffffffffffffffffffffffffffffffffffffffffffffff1916908160001a905350600a85611d4b9190612f38565b9450611ca3565b8093505050505b919050565b505050565b505050565b611d728383611f5a565b611d7f6000848484611dc3565b611dbe576040517f08c379a0000000000000000000000000000000000000000000000000000000008152600401611db590612b8e565b60405180910390fd5b505050565b6000611de48473ffffffffffffffffffffffffffffffffffffffff16612134565b15611f4d578373ffffffffffffffffffffffffffffffffffffffff1663150b7a02611e0d6114fe565b8786866040518563ffffffff1660e01b8152600401611e2f9493929190612ac5565b602060405180830381600087803b158015611e4957600080fd5b505af1925050508015611e7a57506040513d601f19601f82011682018060405250810190611e77919061250e565b60015b611efd573d8060008114611eaa576040519150601f19603f3d011682016040523d82523d6000602084013e611eaf565b606091505b50600081511415611ef5576040517f08c379a0000000000000000000000000000000000000000000000000000000008152600401611eec90612b8e565b60405180910390fd5b805181602001fd5b63150b7a0260e01b7bffffffffffffffffffffffffffffffffffffffffffffffffffffffff1916817bffffffffffffffffffffffffffffffffffffffffffffffffffffffff191614915050611f52565b600190505b949350505050565b600073ffffffffffffffffffffffffffffffffffffffff168273ffffffffffffffffffffffffffffffffffffffff161415611fca576040517f08c379a0000000000000000000000000000000000000000000000000000000008152600401611fc190612d4e565b60405180910390fd5b611fd381611492565b15612013576040517f08c379a000000000000000000000000000000000000000000000000000000000815260040161200a90612bee565b60405180910390fd5b61201f60008383611d5e565b6001600360008473ffffffffffffffffffffffffffffffffffffffff1673ffffffffffffffffffffffffffffffffffffffff168152602001908152602001600020600082825461206f9190612ee2565b92505081905550816002600083815260200190815260200160002060006101000a81548173ffffffffffffffffffffffffffffffffffffffff021916908373ffffffffffffffffffffffffffffffffffffffff160217905550808273ffffffffffffffffffffffffffffffffffffffff16600073ffffffffffffffffffffffffffffffffffffffff167fddf252ad1be2c89b69c2b068fc378daa952ba7f163c4a11628f55a4df523b3ef60405160405180910390a461213060008383611d63565b5050565b6000808273ffffffffffffffffffffffffffffffffffffffff163b119050919050565b828054612163906130bf565b90600052602060002090601f01602090048101928261218557600085556121cc565b82601f1061219e57803560ff19168380011785556121cc565b828001600101855582156121cc579182015b828111156121cb5782358255916020019190600101906121b0565b5b5090506121d991906121dd565b5090565b5b808211156121f65760008160009055506001016121de565b5090565b600061220d61220884612e4e565b612e29565b90508281526020810184848401111561222557600080fd5b61223084828561307d565b509392505050565b600081359050612247816137bd565b92915050565b60008135905061225c816137d4565b92915050565b600081359050612271816137eb565b92915050565b600081519050612286816137eb565b92915050565b600082601f83011261229d57600080fd5b81356122ad8482602086016121fa565b91505092915050565b60008083601f8401126122c857600080fd5b8235905067ffffffffffffffff8111156122e157600080fd5b6020830191508360018202830111156122f957600080fd5b9250929050565b60008135905061230f81613802565b92915050565b60006020828403121561232757600080fd5b600061233584828501612238565b91505092915050565b6000806040838503121561235157600080fd5b600061235f85828601612238565b925050602061237085828601612238565b9150509250929050565b60008060006060848603121561238f57600080fd5b600061239d86828701612238565b93505060206123ae86828701612238565b92505060406123bf86828701612300565b9150509250925092565b600080600080608085870312156123df57600080fd5b60006123ed87828801612238565b94505060206123fe87828801612238565b935050604061240f87828801612300565b925050606085013567ffffffffffffffff81111561242c57600080fd5b6124388782880161228c565b91505092959194509250565b6000806040838503121561245757600080fd5b600061246585828601612238565b92505060206124768582860161224d565b9150509250929050565b6000806040838503121561249357600080fd5b60006124a185828601612238565b92505060206124b285828601612300565b9150509250929050565b6000602082840312156124ce57600080fd5b60006124dc8482850161224d565b91505092915050565b6000602082840312156124f757600080fd5b600061250584828501612262565b91505092915050565b60006020828403121561252057600080fd5b600061252e84828501612277565b91505092915050565b6000806020838503121561254a57600080fd5b600083013567ffffffffffffffff81111561256457600080fd5b612570858286016122b6565b92509250509250929050565b60006020828403121561258e57600080fd5b600061259c84828501612300565b91505092915050565b6125ae81613009565b82525050565b6125bd81612ff7565b82525050565b6125cc8161301b565b82525050565b60006125dd82612e94565b6125e78185612eaa565b93506125f781856020860161308c565b61260081613258565b840191505092915050565b600061261682612e9f565b6126208185612ec6565b935061263081856020860161308c565b61263981613258565b840191505092915050565b600061264f82612e9f565b6126598185612ed7565b935061266981856020860161308c565b80840191505092915050565b60008154612682816130bf565b61268c8186612ed7565b945060018216600081146126a757600181146126b8576126eb565b60ff198316865281860193506126eb565b6126c185612e7f565b60005b838110156126e3578154818901526001820191506020810190506126c4565b838801955050505b50505092915050565b6000612701601a83612ec6565b915061270c82613269565b602082019050919050565b6000612724601083612ec6565b915061272f82613292565b602082019050919050565b6000612747603283612ec6565b9150612752826132bb565b604082019050919050565b600061276a602683612ec6565b91506127758261330a565b604082019050919050565b600061278d602583612ec6565b915061279882613359565b604082019050919050565b60006127b0601c83612ec6565b91506127bb826133a8565b602082019050919050565b60006127d3601083612ec6565b91506127de826133d1565b602082019050919050565b60006127f6602483612ec6565b9150612801826133fa565b604082019050919050565b6000612819601983612ec6565b915061282482613449565b602082019050919050565b600061283c602c83612ec6565b915061284782613472565b604082019050919050565b600061285f600883612ec6565b915061286a826134c1565b602082019050919050565b6000612882603883612ec6565b915061288d826134ea565b604082019050919050565b60006128a5601783612ec6565b91506128b082613539565b602082019050919050565b60006128c8602a83612ec6565b91506128d382613562565b604082019050919050565b60006128eb602983612ec6565b91506128f6826135b1565b604082019050919050565b600061290e601083612ec6565b915061291982613600565b602082019050919050565b6000612931602083612ec6565b915061293c82613629565b602082019050919050565b6000612954602c83612ec6565b915061295f82613652565b604082019050919050565b6000612977600583612ed7565b9150612982826136a1565b600582019050919050565b600061299a602083612ec6565b91506129a5826136ca565b602082019050919050565b60006129bd602183612ec6565b91506129c8826136f3565b604082019050919050565b60006129e0600083612ebb565b91506129eb82613742565b600082019050919050565b6000612a03603183612ec6565b9150612a0e82613745565b604082019050919050565b6000612a26601583612ec6565b9150612a3182613794565b602082019050919050565b612a4581613073565b82525050565b6000612a578285612675565b9150612a638284612644565b9150612a6e8261296a565b91508190509392505050565b6000612a85826129d3565b9150819050919050565b6000602082019050612aa460008301846125b4565b92915050565b6000602082019050612abf60008301846125a5565b92915050565b6000608082019050612ada60008301876125b4565b612ae760208301866125b4565b612af46040830185612a3c565b8181036060830152612b0681846125d2565b905095945050505050565b6000602082019050612b2660008301846125c3565b92915050565b60006020820190508181036000830152612b46818461260b565b905092915050565b60006020820190508181036000830152612b67816126f4565b9050919050565b60006020820190508181036000830152612b8781612717565b9050919050565b60006020820190508181036000830152612ba78161273a565b9050919050565b60006020820190508181036000830152612bc78161275d565b9050919050565b60006020820190508181036000830152612be781612780565b9050919050565b60006020820190508181036000830152612c07816127a3565b9050919050565b60006020820190508181036000830152612c27816127c6565b9050919050565b60006020820190508181036000830152612c47816127e9565b9050919050565b60006020820190508181036000830152612c678161280c565b9050919050565b60006020820190508181036000830152612c878161282f565b9050919050565b60006020820190508181036000830152612ca781612852565b9050919050565b60006020820190508181036000830152612cc781612875565b9050919050565b60006020820190508181036000830152612ce781612898565b9050919050565b60006020820190508181036000830152612d07816128bb565b9050919050565b60006020820190508181036000830152612d27816128de565b9050919050565b60006020820190508181036000830152612d4781612901565b9050919050565b60006020820190508181036000830152612d6781612924565b9050919050565b60006020820190508181036000830152612d8781612947565b9050919050565b60006020820190508181036000830152612da78161298d565b9050919050565b60006020820190508181036000830152612dc7816129b0565b9050919050565b60006020820190508181036000830152612de7816129f6565b9050919050565b60006020820190508181036000830152612e0781612a19565b9050919050565b6000602082019050612e236000830184612a3c565b92915050565b6000612e33612e44565b9050612e3f82826130f1565b919050565b6000604051905090565b600067ffffffffffffffff821115612e6957612e68613229565b5b612e7282613258565b9050602081019050919050565b60008190508160005260206000209050919050565b600081519050919050565b600081519050919050565b600082825260208201905092915050565b600081905092915050565b600082825260208201905092915050565b600081905092915050565b6000612eed82613073565b9150612ef883613073565b9250827fffffffffffffffffffffffffffffffffffffffffffffffffffffffffffffffff03821115612f2d57612f2c61319c565b5b828201905092915050565b6000612f4382613073565b9150612f4e83613073565b925082612f5e57612f5d6131cb565b5b828204905092915050565b6000612f7482613073565b9150612f7f83613073565b9250817fffffffffffffffffffffffffffffffffffffffffffffffffffffffffffffffff0483118215151615612fb857612fb761319c565b5b828202905092915050565b6000612fce82613073565b9150612fd983613073565b925082821015612fec57612feb61319c565b5b828203905092915050565b600061300282613053565b9050919050565b600061301482613053565b9050919050565b60008115159050919050565b60007fffffffff0000000000000000000000000000000000000000000000000000000082169050919050565b600073ffffffffffffffffffffffffffffffffffffffff82169050919050565b6000819050919050565b82818337600083830152505050565b60005b838110156130aa57808201518184015260208101905061308f565b838111156130b9576000848401525b50505050565b600060028204905060018216806130d757607f821691505b602082108114156130eb576130ea6131fa565b5b50919050565b6130fa82613258565b810181811067ffffffffffffffff8211171561311957613118613229565b5b80604052505050565b600061312d82613073565b91507fffffffffffffffffffffffffffffffffffffffffffffffffffffffffffffffff8214156131605761315f61319c565b5b600182019050919050565b600061317682613073565b915061318183613073565b925082613191576131906131cb565b5b828206905092915050565b7f4e487b7100000000000000000000000000000000000000000000000000000000600052601160045260246000fd5b7f4e487b7100000000000000000000000000000000000000000000000000000000600052601260045260246000fd5b7f4e487b7100000000000000000000000000000000000000000000000000000000600052602260045260246000fd5b7f4e487b7100000000000000000000000000000000000000000000000000000000600052604160045260246000fd5b6000601f19601f8301169050919050565b7f5075626c6963206d696e74696e672069732064697361626c6564000000000000600082015250565b7f77726f6e67206d696e742076616c756500000000000000000000000000000000600082015250565b7f4552433732313a207472616e7366657220746f206e6f6e20455243373231526560008201527f63656976657220696d706c656d656e7465720000000000000000000000000000602082015250565b7f4f776e61626c653a206e6577206f776e657220697320746865207a65726f206160008201527f6464726573730000000000000000000000000000000000000000000000000000602082015250565b7f4552433732313a207472616e736665722066726f6d20696e636f72726563742060008201527f6f776e6572000000000000000000000000000000000000000000000000000000602082015250565b7f4552433732313a20746f6b656e20616c7265616479206d696e74656400000000600082015250565b7f4e6f7420656e6f7567682066756e647300000000000000000000000000000000600082015250565b7f4552433732313a207472616e7366657220746f20746865207a65726f2061646460008201527f7265737300000000000000000000000000000000000000000000000000000000602082015250565b7f4552433732313a20617070726f766520746f2063616c6c657200000000000000600082015250565b7f4552433732313a206f70657261746f7220717565727920666f72206e6f6e657860008201527f697374656e7420746f6b656e0000000000000000000000000000000000000000602082015250565b7f736f6c64206f7574000000000000000000000000000000000000000000000000600082015250565b7f4552433732313a20617070726f76652063616c6c6572206973206e6f74206f7760008201527f6e6572206e6f7220617070726f76656420666f7220616c6c0000000000000000602082015250565b7f6578636565646564206d6178207065722077616c6c6574000000000000000000600082015250565b7f4552433732313a2062616c616e636520717565727920666f7220746865207a6560008201527f726f206164647265737300000000000000000000000000000000000000000000602082015250565b7f4552433732313a206f776e657220717565727920666f72206e6f6e657869737460008201527f656e7420746f6b656e0000000000000000000000000000000000000000000000602082015250565b7f5769746864726177206661696c65642100000000000000000000000000000000600082015250565b7f4552433732313a206d696e7420746f20746865207a65726f2061646472657373600082015250565b7f4552433732313a20617070726f76656420717565727920666f72206e6f6e657860008201527f697374656e7420746f6b656e0000000000000000000000000000000000000000602082015250565b7f2e6a736f6e000000000000000000000000000000000000000000000000000000600082015250565b7f4f776e61626c653a2063616c6c6572206973206e6f7420746865206f776e6572600082015250565b7f4552433732313a20617070726f76616c20746f2063757272656e74206f776e6560008201527f7200000000000000000000000000000000000000000000000000000000000000602082015250565b50565b7f4552433732313a207472616e736665722063616c6c6572206973206e6f74206f60008201527f776e6572206e6f7220617070726f766564000000000000000000000000000000602082015250565b7f546f6b656e20646f6573206e6f74206578697374210000000000000000000000600082015250565b6137c681612ff7565b81146137d157600080fd5b50565b6137dd8161301b565b81146137e857600080fd5b50565b6137f481613027565b81146137ff57600080fd5b50565b61380b81613073565b811461381657600080fd5b5056fea2646970667358221220e36da03b3be4d40c180c213bb10164ed44c7d12b6dd099c1d536c25cb85bd1e664736f6c63430008040033",
    "linkReferences": {},
    "deployedLinkReferences": {}
}